{
  "_format": "hh-sol-artifact-1",
  "contractName": "Lottery",
  "sourceName": "contracts/Lottery.sol",
  "abi": [
    {
      "inputs": [
        {
          "internalType": "address",
          "name": "_apTokenAddress",
          "type": "address"
        },
        {
          "internalType": "address",
          "name": "_acaTokenAddress",
          "type": "address"
        },
        {
          "internalType": "address",
          "name": "_initialOwner",
          "type": "address"
        }
      ],
      "stateMutability": "nonpayable",
      "type": "constructor"
    },
    {
      "inputs": [
        {
          "internalType": "address",
          "name": "owner",
          "type": "address"
        }
      ],
      "name": "OwnableInvalidOwner",
      "type": "error"
    },
    {
      "inputs": [
        {
          "internalType": "address",
          "name": "account",
          "type": "address"
        }
      ],
      "name": "OwnableUnauthorizedAccount",
      "type": "error"
    },
    {
      "anonymous": false,
      "inputs": [
        {
          "indexed": true,
          "internalType": "address",
          "name": "player",
          "type": "address"
        },
        {
          "indexed": false,
          "internalType": "uint256",
          "name": "ticketCount",
          "type": "uint256"
        },
        {
          "indexed": false,
          "internalType": "uint256",
          "name": "totalRewardAca",
          "type": "uint256"
        },
        {
          "indexed": false,
          "internalType": "uint256[]",
          "name": "rewardsComposition",
          "type": "uint256[]"
        }
      ],
      "name": "LotteryDraw",
      "type": "event"
    },
    {
      "anonymous": false,
      "inputs": [
        {
          "indexed": true,
          "internalType": "address",
          "name": "previousOwner",
          "type": "address"
        },
        {
          "indexed": true,
          "internalType": "address",
          "name": "newOwner",
          "type": "address"
        }
      ],
      "name": "OwnershipTransferred",
      "type": "event"
    },
    {
      "stateMutability": "payable",
      "type": "fallback"
    },
    {
      "inputs": [],
      "name": "acaToken",
      "outputs": [
        {
          "internalType": "contract IERC20",
          "name": "",
          "type": "address"
        }
      ],
      "stateMutability": "view",
      "type": "function"
    },
    {
      "inputs": [],
      "name": "apToken",
      "outputs": [
        {
          "internalType": "contract ERC20Burnable",
          "name": "",
          "type": "address"
        }
      ],
      "stateMutability": "view",
      "type": "function"
    },
    {
      "inputs": [
        {
          "internalType": "uint256",
          "name": "amount",
          "type": "uint256"
        }
      ],
      "name": "depositACA",
      "outputs": [],
      "stateMutability": "nonpayable",
      "type": "function"
    },
    {
      "inputs": [
        {
          "internalType": "uint256",
          "name": "_ticketCount",
          "type": "uint256"
        }
      ],
      "name": "drawLottery",
      "outputs": [],
      "stateMutability": "nonpayable",
      "type": "function"
    },
    {
      "inputs": [],
      "name": "duration",
      "outputs": [
        {
          "internalType": "uint256",
          "name": "",
          "type": "uint256"
        }
      ],
      "stateMutability": "view",
      "type": "function"
    },
    {
      "inputs": [],
      "name": "endTime",
      "outputs": [
        {
          "internalType": "uint256",
          "name": "",
          "type": "uint256"
        }
      ],
      "stateMutability": "view",
      "type": "function"
    },
    {
      "inputs": [],
      "name": "entryFee",
      "outputs": [
        {
          "internalType": "uint256",
          "name": "",
          "type": "uint256"
        }
      ],
      "stateMutability": "view",
      "type": "function"
    },
    {
      "inputs": [],
      "name": "isOpen",
      "outputs": [
        {
          "internalType": "bool",
          "name": "",
          "type": "bool"
        }
      ],
      "stateMutability": "view",
      "type": "function"
    },
    {
      "inputs": [],
      "name": "maxTicketsCount",
      "outputs": [
        {
          "internalType": "uint256",
          "name": "",
          "type": "uint256"
        }
      ],
      "stateMutability": "view",
      "type": "function"
    },
    {
      "inputs": [],
      "name": "owner",
      "outputs": [
        {
          "internalType": "address",
          "name": "",
          "type": "address"
        }
      ],
      "stateMutability": "view",
      "type": "function"
    },
    {
      "inputs": [],
      "name": "renounceOwnership",
      "outputs": [],
      "stateMutability": "nonpayable",
      "type": "function"
    },
    {
      "inputs": [
        {
          "internalType": "uint256",
          "name": "_entryFee",
          "type": "uint256"
        }
      ],
      "name": "setEntryFee",
      "outputs": [],
      "stateMutability": "nonpayable",
      "type": "function"
    },
    {
      "inputs": [
        {
          "internalType": "uint256",
          "name": "_maxTicketsCount",
          "type": "uint256"
        }
      ],
      "name": "setMaxTicketsCount",
      "outputs": [],
      "stateMutability": "nonpayable",
      "type": "function"
    },
    {
      "inputs": [
        {
          "internalType": "uint256",
          "name": "_duration",
          "type": "uint256"
        }
      ],
      "name": "setduration",
      "outputs": [],
      "stateMutability": "nonpayable",
      "type": "function"
    },
    {
      "inputs": [],
      "name": "startLottery",
      "outputs": [],
      "stateMutability": "nonpayable",
      "type": "function"
    },
    {
      "inputs": [],
      "name": "ticketRemaining",
      "outputs": [
        {
          "internalType": "uint256",
          "name": "",
          "type": "uint256"
        }
      ],
      "stateMutability": "view",
      "type": "function"
    },
    {
      "inputs": [],
      "name": "ticketsSold",
      "outputs": [
        {
          "internalType": "uint256",
          "name": "",
          "type": "uint256"
        }
      ],
      "stateMutability": "view",
      "type": "function"
    },
    {
      "inputs": [],
      "name": "timeRemaining",
      "outputs": [
        {
          "internalType": "uint256",
          "name": "",
          "type": "uint256"
        }
      ],
      "stateMutability": "view",
      "type": "function"
    },
    {
      "inputs": [
        {
          "internalType": "address",
          "name": "newOwner",
          "type": "address"
        }
      ],
      "name": "transferOwnership",
      "outputs": [],
      "stateMutability": "nonpayable",
      "type": "function"
    },
    {
      "inputs": [],
      "name": "withdrawACA",
      "outputs": [],
      "stateMutability": "nonpayable",
      "type": "function"
    },
    {
      "stateMutability": "payable",
      "type": "receive"
    }
  ],
  "bytecode": "0x608060405262015180600455678ac7230489e8000060055561015e600655600060075560006008553480156200003457600080fd5b506040516200204a3803806200204a83398181016040528101906200005a91906200029b565b80600073ffffffffffffffffffffffffffffffffffffffff168173ffffffffffffffffffffffffffffffffffffffff1603620000d05760006040517f1e4fbdf7000000000000000000000000000000000000000000000000000000008152600401620000c7919062000308565b60405180910390fd5b620000e1816200016d60201b60201c565b5082600160006101000a81548173ffffffffffffffffffffffffffffffffffffffff021916908373ffffffffffffffffffffffffffffffffffffffff16021790555081600260006101000a81548173ffffffffffffffffffffffffffffffffffffffff021916908373ffffffffffffffffffffffffffffffffffffffff16021790555050505062000325565b60008060009054906101000a900473ffffffffffffffffffffffffffffffffffffffff169050816000806101000a81548173ffffffffffffffffffffffffffffffffffffffff021916908373ffffffffffffffffffffffffffffffffffffffff1602179055508173ffffffffffffffffffffffffffffffffffffffff168173ffffffffffffffffffffffffffffffffffffffff167f8be0079c531659141344cd1fd0a4f28419497f9722a3daafe3b4186f6b6457e060405160405180910390a35050565b600080fd5b600073ffffffffffffffffffffffffffffffffffffffff82169050919050565b6000620002638262000236565b9050919050565b620002758162000256565b81146200028157600080fd5b50565b60008151905062000295816200026a565b92915050565b600080600060608486031215620002b757620002b662000231565b5b6000620002c78682870162000284565b9350506020620002da8682870162000284565b9250506040620002ed8682870162000284565b9150509250925092565b620003028162000256565b82525050565b60006020820190506200031f6000830184620002f7565b92915050565b611d1580620003356000396000f3fe6080604052600436106101235760003560e01c806369b4a3d6116100a0578063e303a92b11610064578063e303a92b1461036f578063e3cfef6014610398578063eb770d0c146103c3578063f2fde38b146103ec578063fb04acfb146104155761012a565b806369b4a3d6146102b0578063715018a6146102d95780638da5cb5b146102f05780638f15024f1461031b578063a650789c146103465761012a565b80633197cbb6116100e75780633197cbb6146101d95780633a70a864146102045780633ee25ed11461022f57806347535d7b1461025a57806351982f5e146102855761012a565b8063072ea61c1461012c5780630fb5a6b41461015757806313c60b3b14610182578063160344e21461019957806320336b4c146101b05761012a565b3661012a57005b005b34801561013857600080fd5b50610141610440565b60405161014e91906111a2565b60405180910390f35b34801561016357600080fd5b5061016c610446565b60405161017991906111a2565b60405180910390f35b34801561018e57600080fd5b5061019761044c565b005b3480156101a557600080fd5b506101ae6105db565b005b3480156101bc57600080fd5b506101d760048036038101906101d291906111ee565b610601565b005b3480156101e557600080fd5b506101ee610613565b6040516101fb91906111a2565b60405180910390f35b34801561021057600080fd5b50610219610619565b604051610226919061129a565b60405180910390f35b34801561023b57600080fd5b5061024461063f565b60405161025191906111a2565b60405180910390f35b34801561026657600080fd5b5061026f610645565b60405161027c91906112d0565b60405180910390f35b34801561029157600080fd5b5061029a61066d565b6040516102a7919061130c565b60405180910390f35b3480156102bc57600080fd5b506102d760048036038101906102d291906111ee565b610693565b005b3480156102e557600080fd5b506102ee6107ba565b005b3480156102fc57600080fd5b506103056107ce565b6040516103129190611348565b60405180910390f35b34801561032757600080fd5b506103306107f7565b60405161033d91906111a2565b60405180910390f35b34801561035257600080fd5b5061036d600480360381019061036891906111ee565b6107fd565b005b34801561037b57600080fd5b50610396600480360381019061039191906111ee565b61080f565b005b3480156103a457600080fd5b506103ad610de2565b6040516103ba91906111a2565b60405180910390f35b3480156103cf57600080fd5b506103ea60048036038101906103e591906111ee565b610e0a565b005b3480156103f857600080fd5b50610413600480360381019061040e919061138f565b610e1c565b005b34801561042157600080fd5b5061042a610ea2565b60405161043791906111a2565b60405180910390f35b60055481565b60045481565b610454610ece565b6000600260009054906101000a900473ffffffffffffffffffffffffffffffffffffffff1673ffffffffffffffffffffffffffffffffffffffff166370a08231306040518263ffffffff1660e01b81526004016104b19190611348565b602060405180830381865afa1580156104ce573d6000803e3d6000fd5b505050506040513d601f19601f820116820180604052508101906104f291906113d1565b905060008111610537576040517f08c379a000000000000000000000000000000000000000000000000000000000815260040161052e9061145b565b60405180910390fd5b600260009054906101000a900473ffffffffffffffffffffffffffffffffffffffff1673ffffffffffffffffffffffffffffffffffffffff1663a9059cbb33836040518363ffffffff1660e01b815260040161059492919061147b565b6020604051808303816000875af11580156105b3573d6000803e3d6000fd5b505050506040513d601f19601f820116820180604052508101906105d791906114d0565b5050565b6105e3610ece565b600454426105f1919061152c565b6003819055506000600781905550565b610609610ece565b8060048190555050565b60035481565b600260009054906101000a900473ffffffffffffffffffffffffffffffffffffffff1681565b60065481565b60008060035442101590506000600654600754109050811580156106665750805b9250505090565b600160009054906101000a900473ffffffffffffffffffffffffffffffffffffffff1681565b600081116106d6576040517f08c379a00000000000000000000000000000000000000000000000000000000081526004016106cd906115d2565b60405180910390fd5b600260009054906101000a900473ffffffffffffffffffffffffffffffffffffffff1673ffffffffffffffffffffffffffffffffffffffff166323b872dd3330846040518463ffffffff1660e01b8152600401610735939291906115f2565b6020604051808303816000875af1158015610754573d6000803e3d6000fd5b505050506040513d601f19601f8201168201806040525081019061077891906114d0565b6107b7576040517f08c379a00000000000000000000000000000000000000000000000000000000081526004016107ae90611675565b60405180910390fd5b50565b6107c2610ece565b6107cc6000610f55565b565b60008060009054906101000a900473ffffffffffffffffffffffffffffffffffffffff16905090565b60075481565b610805610ece565b8060068190555050565b610817610645565b610856576040517f08c379a000000000000000000000000000000000000000000000000000000000815260040161084d906116e1565b60405180910390fd5b8060076000828254610868919061152c565b9250508190555060065460075411156108b6576040517f08c379a00000000000000000000000000000000000000000000000000000000081526004016108ad90611773565b60405180910390fd5b6000816005546108c69190611793565b905080600160009054906101000a900473ffffffffffffffffffffffffffffffffffffffff1673ffffffffffffffffffffffffffffffffffffffff166370a08231336040518263ffffffff1660e01b81526004016109249190611348565b602060405180830381865afa158015610941573d6000803e3d6000fd5b505050506040513d601f19601f8201168201806040525081019061096591906113d1565b10156109a6576040517f08c379a000000000000000000000000000000000000000000000000000000000815260040161099d90611847565b60405180910390fd5b80600160009054906101000a900473ffffffffffffffffffffffffffffffffffffffff1673ffffffffffffffffffffffffffffffffffffffff1663dd62ed3e33306040518363ffffffff1660e01b8152600401610a04929190611867565b602060405180830381865afa158015610a21573d6000803e3d6000fd5b505050506040513d601f19601f82011682018060405250810190610a4591906113d1565b1015610a86576040517f08c379a0000000000000000000000000000000000000000000000000000000008152600401610a7d90611902565b60405180910390fd5b600160009054906101000a900473ffffffffffffffffffffffffffffffffffffffff1673ffffffffffffffffffffffffffffffffffffffff166379cc679033836040518363ffffffff1660e01b8152600401610ae392919061147b565b600060405180830381600087803b158015610afd57600080fd5b505af1158015610b11573d6000803e3d6000fd5b505050506000808367ffffffffffffffff811115610b3257610b31611922565b5b604051908082528060200260200182016040528015610b605781602001602082028036833780820191505090505b50905060005b84811015610bb6576000610b78611019565b90508084610b86919061152c565b935080838381518110610b9c57610b9b611951565b5b602002602001018181525050508080600101915050610b66565b50600064e8d4a5100083610bca9190611793565b9050600260009054906101000a900473ffffffffffffffffffffffffffffffffffffffff1673ffffffffffffffffffffffffffffffffffffffff166370a08231306040518263ffffffff1660e01b8152600401610c279190611348565b602060405180830381865afa158015610c44573d6000803e3d6000fd5b505050506040513d601f19601f82011682018060405250810190610c6891906113d1565b811115610caa576040517f08c379a0000000000000000000000000000000000000000000000000000000008152600401610ca1906119f2565b60405180910390fd5b600260009054906101000a900473ffffffffffffffffffffffffffffffffffffffff1673ffffffffffffffffffffffffffffffffffffffff1663a9059cbb33836040518363ffffffff1660e01b8152600401610d0792919061147b565b6020604051808303816000875af1158015610d26573d6000803e3d6000fd5b505050506040513d601f19601f82011682018060405250810190610d4a91906114d0565b610d89576040517f08c379a0000000000000000000000000000000000000000000000000000000008152600401610d8090611a5e565b60405180910390fd5b3373ffffffffffffffffffffffffffffffffffffffff167fc756185947a2fdafefa6f046a0091a350b7ecfc73cbbfce4e4510980c64ae3a1868385604051610dd393929190611b3c565b60405180910390a25050505050565b60006003544210610df65760009050610e07565b42600354610e049190611b7a565b90505b90565b610e12610ece565b8060058190555050565b610e24610ece565b600073ffffffffffffffffffffffffffffffffffffffff168173ffffffffffffffffffffffffffffffffffffffff1603610e965760006040517f1e4fbdf7000000000000000000000000000000000000000000000000000000008152600401610e8d9190611348565b60405180910390fd5b610e9f81610f55565b50565b600060065460075410610eb85760009050610ecb565b600754600654610ec89190611b7a565b90505b90565b610ed66110ef565b73ffffffffffffffffffffffffffffffffffffffff16610ef46107ce565b73ffffffffffffffffffffffffffffffffffffffff1614610f5357610f176110ef565b6040517f118cdaa7000000000000000000000000000000000000000000000000000000008152600401610f4a9190611348565b60405180910390fd5b565b60008060009054906101000a900473ffffffffffffffffffffffffffffffffffffffff169050816000806101000a81548173ffffffffffffffffffffffffffffffffffffffff021916908373ffffffffffffffffffffffffffffffffffffffff1602179055508173ffffffffffffffffffffffffffffffffffffffff168173ffffffffffffffffffffffffffffffffffffffff167f8be0079c531659141344cd1fd0a4f28419497f9722a3daafe3b4186f6b6457e060405160405180910390a35050565b60008061102960016127106110f7565b9050611b58811161104857611040600a60146110f7565b9150506110ec565b61232881116110655761105d6015601e6110f7565b9150506110ec565b61264881116110825761107a601f60326110f7565b9150506110ec565b6126ac811161109f57611097603360646110f7565b9150506110ec565b6126de81116110bc576110b4606560c86110f7565b9150506110ec565b6126f781116110da576110d260c961012c6110f7565b9150506110ec565b6110e861012d6101f46110f7565b9150505b90565b600033905090565b60006008600081548092919061110c90611bae565b919050555060006001436111209190611b7a565b404260085460405160200161113793929190611c42565b6040516020818303038152906040528051906020012060001c9050600184846111609190611b7a565b61116a919061152c565b816111759190611cae565b84611180919061152c565b91505092915050565b6000819050919050565b61119c81611189565b82525050565b60006020820190506111b76000830184611193565b92915050565b600080fd5b6111cb81611189565b81146111d657600080fd5b50565b6000813590506111e8816111c2565b92915050565b600060208284031215611204576112036111bd565b5b6000611212848285016111d9565b91505092915050565b600073ffffffffffffffffffffffffffffffffffffffff82169050919050565b6000819050919050565b600061126061125b6112568461121b565b61123b565b61121b565b9050919050565b600061127282611245565b9050919050565b600061128482611267565b9050919050565b61129481611279565b82525050565b60006020820190506112af600083018461128b565b92915050565b60008115159050919050565b6112ca816112b5565b82525050565b60006020820190506112e560008301846112c1565b92915050565b60006112f682611267565b9050919050565b611306816112eb565b82525050565b600060208201905061132160008301846112fd565b92915050565b60006113328261121b565b9050919050565b61134281611327565b82525050565b600060208201905061135d6000830184611339565b92915050565b61136c81611327565b811461137757600080fd5b50565b60008135905061138981611363565b92915050565b6000602082840312156113a5576113a46111bd565b5b60006113b38482850161137a565b91505092915050565b6000815190506113cb816111c2565b92915050565b6000602082840312156113e7576113e66111bd565b5b60006113f5848285016113bc565b91505092915050565b600082825260208201905092915050565b7f3c77697468647261776163613e206e6f2061636120746f207769746864726177600082015250565b60006114456020836113fe565b91506114508261140f565b602082019050919050565b6000602082019050818103600083015261147481611438565b9050919050565b60006040820190506114906000830185611339565b61149d6020830184611193565b9392505050565b6114ad816112b5565b81146114b857600080fd5b50565b6000815190506114ca816114a4565b92915050565b6000602082840312156114e6576114e56111bd565b5b60006114f4848285016114bb565b91505092915050565b7f4e487b7100000000000000000000000000000000000000000000000000000000600052601160045260246000fd5b600061153782611189565b915061154283611189565b925082820190508082111561155a576115596114fd565b5b92915050565b7f3c6465706f7369746163613e20616d6f756e74206d757374206265206772656160008201527f746572207468616e203000000000000000000000000000000000000000000000602082015250565b60006115bc602a836113fe565b91506115c782611560565b604082019050919050565b600060208201905081810360008301526115eb816115af565b9050919050565b60006060820190506116076000830186611339565b6116146020830185611339565b6116216040830184611193565b949350505050565b7f3c6465706f7369746163613e207472616e73666572206661696c656400000000600082015250565b600061165f601c836113fe565b915061166a82611629565b602082019050919050565b6000602082019050818103600083015261168e81611652565b9050919050565b7f3c647261776c6f74746572793e206c6f747465727920697320636c6f73656400600082015250565b60006116cb601f836113fe565b91506116d682611695565b602082019050919050565b600060208201905081810360008301526116fa816116be565b9050919050565b7f3c647261776c6f74746572793e206e6f7420656e6f756768207469636b65747360008201527f206c656674000000000000000000000000000000000000000000000000000000602082015250565b600061175d6025836113fe565b915061176882611701565b604082019050919050565b6000602082019050818103600083015261178c81611750565b9050919050565b600061179e82611189565b91506117a983611189565b92508282026117b781611189565b915082820484148315176117ce576117cd6114fd565b5b5092915050565b7f3c647261776c6f74746572793e20696e73756666696369656e7420415020626160008201527f6c616e6365000000000000000000000000000000000000000000000000000000602082015250565b60006118316025836113fe565b915061183c826117d5565b604082019050919050565b6000602082019050818103600083015261186081611824565b9050919050565b600060408201905061187c6000830185611339565b6118896020830184611339565b9392505050565b7f3c647261776c6f74746572793e20696e73756666696369656e7420415020616c60008201527f6c6f77616e636500000000000000000000000000000000000000000000000000602082015250565b60006118ec6027836113fe565b91506118f782611890565b604082019050919050565b6000602082019050818103600083015261191b816118df565b9050919050565b7f4e487b7100000000000000000000000000000000000000000000000000000000600052604160045260246000fd5b7f4e487b7100000000000000000000000000000000000000000000000000000000600052603260045260246000fd5b7f3c647261776c6f74746572793e206e6f7420656e6f7567682041434120666f7260008201527f2072657761726400000000000000000000000000000000000000000000000000602082015250565b60006119dc6027836113fe565b91506119e782611980565b604082019050919050565b60006020820190508181036000830152611a0b816119cf565b9050919050565b7f3c647261776c6f74746572793e207472616e73666572206661696c6564000000600082015250565b6000611a48601d836113fe565b9150611a5382611a12565b602082019050919050565b60006020820190508181036000830152611a7781611a3b565b9050919050565b600081519050919050565b600082825260208201905092915050565b6000819050602082019050919050565b611ab381611189565b82525050565b6000611ac58383611aaa565b60208301905092915050565b6000602082019050919050565b6000611ae982611a7e565b611af38185611a89565b9350611afe83611a9a565b8060005b83811015611b2f578151611b168882611ab9565b9750611b2183611ad1565b925050600181019050611b02565b5085935050505092915050565b6000606082019050611b516000830186611193565b611b5e6020830185611193565b8181036040830152611b708184611ade565b9050949350505050565b6000611b8582611189565b9150611b9083611189565b9250828203905081811115611ba857611ba76114fd565b5b92915050565b6000611bb982611189565b91507fffffffffffffffffffffffffffffffffffffffffffffffffffffffffffffffff8203611beb57611bea6114fd565b5b600182019050919050565b6000819050919050565b6000819050919050565b611c1b611c1682611bf6565b611c00565b82525050565b6000819050919050565b611c3c611c3782611189565b611c21565b82525050565b6000611c4e8286611c0a565b602082019150611c5e8285611c2b565b602082019150611c6e8284611c2b565b602082019150819050949350505050565b7f4e487b7100000000000000000000000000000000000000000000000000000000600052601260045260246000fd5b6000611cb982611189565b9150611cc483611189565b925082611cd457611cd3611c7f565b5b82820690509291505056fea264697066735822122078ac80c49154f5f423df1e26912f0ecfcd62d8d98e7a61e34589dec98490cd1464736f6c63430008180033",
  "linkReferences": {},
  "deployedLinkReferences": {}
}